:0400000065EF00F0B8
:100008004882FACF04F0FBCF05F0E9CF06F0EACF3B
:1000180007F0E1CF08F0E2CF09F0D9CF0AF0DACF44
:100028000BF0F3CF0CF0F4CF0DF0F6CF0EF0F7CFC6
:100038000FF0F8CF10F0F5CF11F0F0A224D08A9885
:10004800FF0E1FEC02F0126E8A8812AA07D0200E4B
:10005800026E070EF9EC01F0000E476E12A80BD0E5
:10006800100E026E070EF9EC01F08A860D0EE82ECE
:10007800FED700F08A9612A005D08A98E10E1FECF0
:1000880002F08A88F09211C0F5FF10C0F8FF0FC087
:10009800F7FF0EC0F6FF0DC0F4FF0CC0F3FF0BC056
:1000A800DAFF0AC0D9FF09C0E2FF08C0E1FF07C0B4
:1000B800EAFF06C0E9FF05C0FBFF04C0FAFF48924B
:1000C80011000FEF02F01E6E020E146E050EE1EC29
:1000D80001F0260E146E060EE1EC01F04C0E146EC3
:1000E800000EE1EC01F02F0E146E040EE1EC01F0AD
:1000F8008AD0E70E236E23C022F022C021F021C04F
:1001080020F020C01FF01F0E1C6E000E1D6E05ECA7
:1001180002F01F0E1C6E000E1D6ED5EC01F086D08D
:10012800C20E236E23C022F022C021F021C020F08D
:1001380020C01FF01F0E1C6E000E1D6E05EC02F095
:100148001F0E1C6E000E1D6ED5EC01F06FD0C20E96
:10015800236E23C022F022C021F021C020F0C30E5C
:100168001F6E1F0E1C6E000E1D6E05EC02F01F0E9A
:100178001C6E000E1D6ED5EC01F058D0C20E236E19
:1001880023C022F022C021F021C020F0C40E1F6E2F
:100198001F0E1C6E000E1D6E05EC02F01F0E1C6E6D
:1001A800000E1D6ED5EC01F041D0C20E236E23C0A7
:1001B80022F022C021F021C020F0C50E1F6E1F0EB4
:1001C8001C6E000E1D6E05EC02F01F0E1C6E000E5C
:1001D8001D6ED5EC01F02AD0C20E236E23C022F08A
:1001E80022C021F021C020F0C60E1F6E1F0E1C6E0B
:1001F800000E1D6E05EC02F01F0E1C6E000E1D6E2B
:10020800D5EC01F013D01E50000AD8B472D7010AF9
:10021800D8B486D7030AD8B49AD7010AD8B4AED7C7
:10022800070AD8B4C2D7010AD8B4D6D7000E476E89
:100238004E0E146E000EE1EC01F01200000E456E39
:10024800000E466E9292EDEC01F0000E146E050E53
:10025800136EC5EC01F0F28CF28E000E67EC00F024
:1002680089A202D0010E01D0000EFF0A246E244696
:1002780089502418FD0B2418896E000E466E1E0E38
:10028800466401D014D01A0E246EF80EE82EFED75C
:10029800242EFCD700D04650010D250EF324D96E2C
:1002A800000EF420DA6E46C0DFFF462AE8D745C0C4
:1002B80025F04528266E250E186E000E196E200EA4
:1002C8001A6E68EC01F0CCD74750D8A4FDD78A96AF
:1002D800010E476E4E0E146E000EE1EC01F08A9886
:1002E800E10E17EC02F08A888A98A00E17EC02F04B
:1002F80018C013F019C014F01AC015F0166A8DEC66
:1003080001F08A888A860D0EE82EFED700F08A96BC
:10031800120010D013C0D9FF14C0DAFFDF50C96E25
:100328009EA6FED79E96C9CF17F01506D8A016062A
:10033800134A142A15501610D8B41200EBD71B6EA6
:100348008A981B501F0B200917EC02F018C013F0F5
:1003580019C014F01AC015F0166A8DEC01F08A88DD
:100368001200C69A93800F015C91928A949E949C85
:10037800C698C78CC78EC690C692C694C696C68ABB
:1003880012000AD0340E156EF20EE82EFED7152E86
:10039800FCD71306D8A0140613501410D8B41200B2
:1003A800F1D78A961CC018F01DC019F0050E1A6EF8
:1003B8000A0EA3EC01F08A861200156E8A98155071
:1003C8001F0B200917EC02F0145017EC02F08A8872
:1003D8001200939893968A968A880F015C95938465
:1003E800F198F088B5EC01F01200036E8A9803507A
:1003F8001F0B20091FEC02F002501FEC02F08A8844
:1004080012001CC018F01DC019F0050E1A6E100E4F
:10041800A3EC01F01200476A48904892000EF86E6B
:10042800000122EF01F0136E13C0C9FF9EA6FED78C
:100438009E96C9501200016E01C0C9FF9EA6FED744
:060448009E96C95012004F
:020000040020DA
:08000000FFFFFFFFFFFFFFFF00
:020000040030CA
:0E00000000635E3CFFD385FF0FC00FE00F4092
:00000001FF
