:0400000065EF00F0B8
:100008003F82FACF04F0FBCF05F0E9CF06F0EACF44
:1000180007F0E1CF08F0E2CF09F0D9CF0AF0DACF44
:100028000BF0F3CF0CF0F4CF0DF0F6CF0EF0F7CFC6
:100038000FF0F8CF10F0F5CF11F0F0A224D08A9885
:10004800FF0E35EC01F0126E8A8812AA07D0200E36
:10005800026E070E19EC01F0000E3E6E12A80BD0CE
:10006800100E026E070E19EC01F08A860D0EE82EAE
:10007800FED700F08A9612A005D08A98E10E35ECDA
:1000880001F08A88F09211C0F5FF10C0F8FF0FC088
:10009800F7FF0EC0F6FF0DC0F4FF0CC0F3FF0BC056
:1000A800DAFF0AC0D9FF09C0E2FF08C0E1FF07C0B4
:1000B800EAFF06C0E9FF05C0FBFF04C0FAFF3F9254
:1000C800110025EF01F0000E3D6E01EC01F0000E6D
:1000D800146E050E136EE3EC00F0F28CF28EBBEC9E
:1000E80000F0F3EC00F00009D8B4FBD71C0E196E31
:1000F800000E1A6EA0EC00F03C6E1CC03DF0F1D76B
:1001080016D013C0D9FF14C0DAFFDF50C96E9EA6FF
:10011800FED79E9615C0D9FF16C0DAFFC9CFDFFFFC
:100128001706D8A01806134A142A154A162A175073
:100138001810D8B41200E5D78A98610E2DEC01F09A
:100148001B6E19C013F01AC014F019C015F01AC0AC
:1001580016F0000E186E200E176E84EC00F08A88D8
:10016800400E146E070E0DEC01F01B501200020E2B
:10017800146E050E0DEC01F0260E146E060E0DEC35
:1001880001F0200E146E110E0DEC01F0000E3E6E03
:100198004F0E146E000E0DEC01F08A861200C69AFE
:1001A80093800F015C91928A949E949CC698C78C08
:1001B800C78EC690C692C694C696C68A12000AD042
:1001C800340E156EF20EE82EFED7152EFCD7130648
:1001D800D8A0140613501410D8B41200F1D73E500A
:1001E800D8B402D0000E12008A98FF0E2DEC01F050
:1001F800146E8A881450400B1200939893968A962E
:100208008A880F015C959384F198F088D3EC00F00C
:100218001200156E8A9815501F0B20092DEC01F05D
:1002280014502DEC01F08A881200036E8A9803504E
:100238001F0B200935EC01F0025035EC01F08A88DB
:1002480012003E6A3F903F92000EF86E000167EF81
:1002580000F0136E13C0C9FF9EA6FED79E96C95024
:100268001200016E01C0C9FF9EA6FED79E96C95016
:02027800120072
:020000040020DA
:08000000FFFFFFFFFFFFFFFF00
:020000040030CA
:0E00000000635E3CFFD385FF0FC00FE00F4092
:00000001FF
