:04000000D0EF04F049
:10080000002048656C6C6F20576F726C642100008B
:10081000000E096E13D00950010D05C007F006C087
:1008200008F0F3500726F450082207C0F6FF08C06E
:10083000F7FF0800F55090EC04F0092A0950010D6B
:1008400005C007F006C008F0F3500726F450082250
:1008500007C0F6FF08C0F7FF0800F5500009D8B43C
:100860001200D9D7000E8D6E000E8C6E000E896EB0
:10087000000E8A6E000E8B6E070E966E926893685D
:10088000C70E946E000E956EC40E0F015D6F3F0E85
:100890000F015C6F000E0F015E6F070E0F015F6F9F
:1008A0002F0E0F015B6F8568F19E1200000E836EA4
:1008B000000E956E838E270E056EF50EE82EFED780
:1008C000052EFCD700F0320E73EC04F0280E73EC0A
:1008D00004F00C0E73EC04F0010E73EC04F0060E41
:1008E00073EC04F01200046E0D0E036EFC0EE82E85
:1008F000FED7032EFCD7000E016E0450A6EC04F0C8
:100900000438F00B046E030E036E980EE82EFED72B
:10091000032EFCD7000E016E0450A6EC04F012006A
:10092000046E0D0E036EFC0EE82EFED7032EFCD7D0
:10093000010E016E0450A6EC04F00438F00B046EB6
:10094000010E016E0450A6EC04F01200026E023893
:100950000F0B026E02500F0B026E8350F00B836E72
:1009600083500210836E01B002D0839801D0838837
:10097000839A838C839C1200D7EC04F056EC04F02D
:10098000010E056E080E066E08EC04F0FFD7620E2D
:10099000D36E000ED26E000E9B6E000EB56E12006E
:1009A000000EF86E080EF76E0001BCEF04F032EC9A
:0809B00004F0C7EC04F0120092
:020000040020DA
:08000000FFFFFFFFFFFFFFFF00
:020000040030CA
:0E00000000285F3CFF5185FF0FC00FE00F404E
:00000001FF
