:0400000062EF00F0BB
:100008004B82FACF04F0FBCF05F0E9CF06F0EACF38
:1000180007F0E1CF08F0E2CF09F0D9CF0AF0DACF44
:100028000BF0F3CF0CF0F4CF0DF0F6CF0EF0F7CFC6
:100038000FF0F8CF10F0F5CF11F0F0A221D08A9888
:10004800FF0E87EC17F0126E8A8812AA07D0200ECE
:10005800026E070E6AEC17F0000E4A6E12A808D05E
:10006800100E026E070E6AEC17F08A8600D08A9688
:1000780012A005D08A98E10E87EC17F08A88F092D2
:1000880011C0F5FF10C0F8FF0FC0F7FF0EC0F6FF54
:100098000DC0F4FF0CC0F3FF0BC0DAFF0AC0D9FF94
:1000A80009C0E2FF08C0E1FF07C0EAFF06C0E9FF98
:1000B80005C0FBFF04C0FAFF4B92110045EF17F093
:1008000000010000000A00000064000000E803008E
:100810000010270000A086010040420F008096983B
:100820000000E1F50500CA9A3B00803F002041002E
:10083000C842007A44401C4650C347247449971864
:100840004BBCBE4C6B6E4E03155079AD60F34971D5
:1008500000803FCDCC3DD7233C12833AB7D138C678
:100860002737388635C0D633CC2B32708930E7DB5A
:100870002EE53C1E42A20D48616C6C2056616C75E1
:10088000652E203D2000252E33670000990E0001C3
:10089000A46F000E0001A56FE4EF0BF0250E000120
:1008A000BA19D8B407D095C0D9FF96C0DAFFBAC03C
:1008B000DFFFD9D3000E0001AA6F000EA96F97C009
:1008C000F6FF98C0F7FF0800F5502E0AD8A434D0E0
:1008D0000001AA8D0001974B982B000E0001B66F06
:1008E000000EB56F1ED0B5C021F0B6C022F0000ECC
:1008F000246E0A0E236EE2EC16F097C0F6FF98C045
:10090000F7FF0800F5502126000E2222D00E2124E8
:100910000001B56FFF0E22200001B66F0001974B5A
:10092000982B97C0F6FF98C0F7FF0800F55028EC09
:1009300017F0D8A00CD0D7D7000E0001B66F000E6C
:10094000B56F0001AA8903D00001AA8315D097C012
:10095000F6FF98C0F7FF0001974B982B0800F5CFE2
:10096000BAF00001BA51000AD8B4F3EF0BF0670AED
:10097000D8B4EAD7E4EF0BF0070E0001AA15D8B4FB
:100980008EEF0BF00001AAA905D0000E0001B66F92
:10099000060EB56FA4C0D9FFA5C0DAFFDECFB7F051
:1009A000DECFB8F0DDCFB9F0030E0001A427000EB2
:1009B000A5230001B9AF11D0B7C064F0B8C065F08D
:1009C000B9C066F09DEC16F064C0B7F065C0B8F031
:1009D00066C0B9F0030E0001A913000E0001B46F48
:1009E000000EB36F0001B7510001B8110001B91139
:1009F000D8B499D0820E00019B6FFF0E00019C6F4E
:100A0000B7C09DF0B8C09EF0B9C09FF0BAC0A0F0CA
:100A1000100E06D00001D890A0339F339E339D3333
:100A2000E82EF8D700019D5100019B250001B36F0E
:100A3000000E00019C210001B46F0001B307D8A093
:100A4000B407B3C021F0B4C022F0000E246E030E30
:100A5000236EE2EC16F021C0B3F022C0B4F0B3C0B4
:100A600019F0B4C01AF0000E1C6E0A0E1B6E69EC71
:100A700014F019C0B3F01AC0B4F00001B4AF04D040
:100A80000001B307D8A0B4070001B3510008FAEC85
:100A90000BF076C0ABF077C0ACF078C0ADF0ABC077
:100AA00067F0ACC068F0ADC069F0B7C06AF0B8C01C
:100AB0006BF0B9C06CF069EC10F067C0ABF068C0C7
:100AC000ACF069C0ADF0ABC08CF0ACC08DF0ADC087
:100AD0008EF0000E00018F6F800E0001906F3F0EB0
:100AE0000001916F65EC13F00001D8B005D0000152
:100AF000B307D8A0B40717D0ABC08CF0ACC08DF052
:100B0000ADC08EF0000E00018F6F200E0001906FBF
:100B1000410E0001916F65EC13F00001D8A003D0E5
:100B20000001B34BB42B0001B4BF07D00001B45196
:100B300008E10001B305D8B004D0010E0001BA6F7E
:100B400002D0B3C0BAF00001AAA391D20001B4AFA1
:100B500008D0FC0E0001B35DFF0E0001B459D8A00F
:100B600010D00001B5510001B35D0001B451800AFD
:100B700000019B6F0001B651800A00019B59D8A06B
:100B800076D20001B5510001B611D8B407D00001EA
:100B9000AAA304D00001B507D8A0B6070001B6513A
:100BA00005E1090E0001B55DD8A004D0080E0001D2
:100BB000BA6F02D0B5C0BAF00001B7510001B81148
:100BC0000001B911D8B4F3D0B7C07DF0B8C07EF041
:100BD000B9C07FF00001BA5100080001B325FAEC5A
:100BE0000BF076C080F077C081F078C082F018EC0E
:100BF00011F07DC0B7F07EC0B8F07FC0B9F0B7C0CB
:100C000083F0B8C084F0B9C085F0B7C027F0B8C091
:100C100028F0B9C029F0EBEC12F027C036F028C05C
:100C200037F029C038F02AC039F062EC15F036C030
:100C300064F037C065F038C066F09DEC16F064C013
:100C400080F065C081F066C082F005EC0EF080C0D7
:100C50008CF081C08DF082C08EF0000E00018F6F8D
:100C6000000E0001906F3F0E0001916F65EC13F0D4
:100C70000001D8A017D0B7C080F0B8C081F0B9C0CB
:100C800082F0000E0001836F000E0001846F3F0EA2
:100C90000001856F05EC0EF080C0B7F081C0B8F0A0
:100CA00082C0B9F0BAC09BF000019C6B9BBF9C074F
:100CB0000001D8909B379C370001D8909B379C3718
:100CC000040E00019B27000E9C23010E00019B25B2
:100CD000F66E080E9C21F76EB7C027F0B8C028F05A
:100CE000B9C029F0EBEC12F00900F550275C0900BF
:100CF000F55028580900F55029580900F5502A5890
:100D0000D8A01BD0B7C067F0B8C068F0B9C069F010
:100D1000CD0E00016A6FCC0E00016B6F3D0E00011D
:100D20006C6F69EC10F067C0B7F068C0B8F069C0CC
:100D3000B9F00001B34BB42B3AD00001BA51040D05
:100D4000010EF324F66E080EF420F76EB7C027F0FC
:100D5000B8C028F0B9C029F0EBEC12F00900F5504A
:100D6000275C0900F55028580900F550295809005A
:100D7000F5502A58D8B01BD0B7C067F0B8C068F09B
:100D8000B9C069F0000E00016A6F200E00016B6FA0
:100D9000410E00016C6F69EC10F067C0B7F068C0DD
:100DA000B8F069C0B9F00001B307D8A0B407030ECA
:100DB0000001A91500019B6F000E0001AA1500019A
:100DC0009C6F00019B5100019C11D8B409D095C0C3
:100DD000D9FF96C0DAFF2D0EDF6E0001954B962BE2
:100DE000B7C027F0B8C028F0B9C029F0EBEC12F07A
:100DF00027C0AFF028C0B0F029C0B1F02AC0B2F0CF
:100E0000AFC013F0B0C014F0B1C015F0B2C016F00E
:100E10000001BA51040D010EF324F66E080EF42001
:100E2000F76E0900F5CF17F00900F5CF18F00900AB
:100E3000F5CF19F00A00F5CF1AF0ABEC14F013500F
:100E4000300F95C0D9FF96C0DAFFDF6E0001954BD9
:100E5000962BAFC013F0B0C014F0B1C015F0B2C003
:100E600016F00001BA51040D010EF324F66E080EBF
:100E7000F420F76E0900F5CF17F00900F5CF18F050
:100E80000900F5CF19F00A00F5CF1AF098EC15F02B
:100E900013C0AFF014C0B0F015C0B1F016C0B2F07E
:100EA0000001B5510001B611D8B496D095C0D9FF54
:100EB00096C0DAFF2E0EDF6E0001954B962B0001D7
:100EC000BA510001B55F000E0001BABFFF0E00016C
:100ED000B65B68D00001AAA315D00001AF51000194
:100EE000B0110001B1110001B211D8A40BD0000E55
:100EF0000001BA6F0001BA510001B56FB66BB5BF02
:100F0000B60764D0AFC013F0B0C014F0B1C015F094
:100F1000B2C016F00001BA51040D010EF324F66EB2
:100F2000080EF420F76E0900F5CF17F00900F5CF91
:100F300018F00900F5CF19F00A00F5CF1AF0ABEC64
:100F400014F01350300F95C0D9FF96C0DAFFDF6E52
:100F50000001954B962BAFC013F0B0C014F0B1C098
:100F600015F0B2C016F00001BA51040D010EF324C1
:100F7000F66E080EF420F76E0900F5CF17F00900A1
:100F8000F5CF18F00900F5CF19F00A00F5CF1AF0E7
:100F900098EC15F013C0AFF014C0B0F015C0B1F06C
:100FA00016C0B2F00001BA070001BA29D8B40ED0B9
:100FB00091D795C0D9FF96C0DAFF300EDF6E0001E1
:100FC000954B962B0001B507D8A0B6070001B55187
:100FD0000001B611D8A4EDD795C0D9FF96C0DAFFAD
:100FE000650EDF6E0001954B962B0001B4AF0FD05C
:100FF0000001B36DB41FD8B0B42B95C0D9FF96C013
:10100000DAFF2D0E09D00001954B962B07D095C025
:10101000D9FF96C0DAFF2B0EDF6EF5D7B3C019F0FB
:10102000B4C01AF0000E1C6E0A0E1B6E69EC14F0B0
:101030001950300F95C0D9FF96C0DAFFDF6E00015E
:10104000954B962BB3C013F0B4C014F0000E166E7F
:101050000A0E156E2AEC15F01350300F95C0D9FF0B
:1010600096C0DAFFAFD30001954B962BADD30001AC
:10107000AAA304D10001B4AF12D0010E0001B32520
:1010800000019B6F000E0001B42100019C6F000164
:101090009B510001B55F00019C510001B65BB7C0D8
:1010A00027F0B8C028F0B9C029F0EBEC12F027C047
:1010B000AFF028C0B0F029C0B1F02AC0B2F0000EE5
:1010C0000001BA6F0A0E0001BA19D8B41ED000018F
:1010D000BA51040D010EF324F66E080EF420F76EDB
:1010E0000900F5500001AF5D0900F5500001B0594D
:1010F0000900F5500001B1590900F5500001B2593D
:10110000D8A003D00001BA2BDDD70001BA510001ED
:10111000B55F000E0001BABFFF0E0001B65B000113
:10112000B6BF08D00001B6511DE10D0E0001B55D3E
:10113000D8B018D0B7C080F0B8C081F0B9C082F084
:101140000001B55139EC0FF076C083F077C084F020
:1011500078C085F005EC0EF080C0B7F081C0B8F023
:1011600082C0B9F00001B551FAEC0BF076C0A6F0E0
:1011700077C0A7F078C0A8F0A6C067F0A7C068F055
:10118000A8C069F0B7C083F0B8C084F0B9C085F0DA
:10119000AFC036F0B0C037F0B1C038F0B2C039F0EF
:1011A00062EC15F036C064F037C065F038C066F008
:1011B0009DEC16F064C080F065C081F066C082F0DE
:1011C00005EC0EF080C06AF081C06BF082C06CF05C
:1011D00069EC10F067C0A6F068C0A7F069C0A8F07D
:1011E000A6C027F0A7C028F0A8C029F0EBEC12F0A9
:1011F00027C0AFF028C0B0F029C0B1F02AC0B2F0CB
:101200001ED0AFC013F0B0C014F0B1C015F0B2C022
:1012100016F00A0E176E000E186E000E196E000EF4
:101220001A6EABEC14F013C0AFF014C0B0F015C0E0
:10123000B1F016C0B2F00001B507D8A0B6070001A2
:10124000B5510001B611D8B43CD0AFC013F0B0C056
:1012500014F0B1C015F0B2C016F00A0E176E000EF1
:10126000186E000E196E000E1A6E98EC15F01350E1
:10127000141015101610D8A424D0C3D70001B6BF7F
:1012800008D00001B6511DE10D0E0001B55DD8B0CA
:1012900018D0B7C080F0B8C081F0B9C082F00001AA
:1012A000B55139EC0FF076C083F077C084F078C088
:1012B00085F005EC0EF080C0B7F081C0B8F082C0B8
:1012C000B9F00001B4BF08D00001B45126E10A0E04
:1012D0000001B35DD8B021D00001B7510001B811B1
:1012E0000001B911D8B45FD0B7C027F0B8C028F05A
:1012F000B9C029F0EBEC12F02750281029102A1061
:10130000D8A451D00001B4BF4ED00001B45105E1C2
:10131000020E0001B35DD8A046D0ABC08CF0ACC0CB
:101320008DF0ADC08EF0700E00018F6F890E000140
:10133000906F400E0001916F65EC13F00001D8B082
:1013400003D00001F70E02D00001F80EB327FF0E04
:10135000B4230001B351FAEC0BF076C0ABF077C0C8
:10136000ACF078C0ADF0B7C013F0B8C014F0B9C09D
:1013700015F0ABC016F0ACC017F0ADC018F0BEEC65
:1013800011F013C0AFF014C0B0F015C0B1F016C02A
:10139000B2F0000E0001B76F000E0001B86F000E32
:1013A0000001B96F33D0B7C027F0B8C028F0B9C07A
:1013B00029F0EBEC12F027C0AFF028C0B0F029C044
:1013C000B1F02AC0B2F0B7C08CF0B8C08DF0B9C08F
:1013D0008EF0AFC036F0B0C037F0B1C038F0B2C058
:1013E00039F062EC15F036C08FF037C090F038C09D
:1013F00091F0CBEC15F08CC0B7F08DC0B8F08EC07A
:10140000B9F0000E0001B46F000EB36F010E0001C1
:10141000BA6F0A0E0001BA19D8B41ED00001BA5131
:10142000040D010EF324F66E080EF420F76E090089
:10143000F5500001AF5D0900F5500001B0590900F9
:10144000F5500001B1590900F5500001B259D8A07A
:1014500003D00001BA2BDDD7030E0001A91500014E
:101460009B6F000E0001AA1500019C6F00019B51AB
:1014700000019C11D8B454D095C0D9FF96C0DAFFB2
:101480002D0E4CD00001954B962B4AD0AFC013F0D7
:10149000B0C014F0B1C015F0B2C016F00001BA51DE
:1014A000040D010EF324F66E080EF420F76E090009
:1014B000F5CF17F00900F5CF18F00900F5CF19F0B6
:1014C0000A00F5CF1AF0ABEC14F013C0ABF014C067
:1014D000ACF015C0ADF016C0AEF0ABC013F0ACC0B0
:1014E00014F0ADC015F0AEC016F00A0E176E000E67
:1014F000186E000E196E000E1A6E98EC15F013C0DF
:10150000ABF014C0ACF015C0ADF016C0AEF00001E9
:10151000AB51300F95C0D9FF96C0DAFFDF6EB2D75E
:101520000001BA070001BA29D8B40ED0AFD795C0D0
:10153000D9FF96C0DAFF300EDF6E0001954B962B77
:101540000001B307D8A0B4070001B4BF07D0000161
:10155000B451EDE10001B305D8B0E9D70001B6BF41
:101560000CD00001B65105E1090E0001B55DD8A00F
:1015700004D0080E0001BA6F02D0B5C0BAF0000165
:10158000BA510001B55F000E0001BABFFF0E0001A5
:10159000B65B0001BA510001D8B409D095C0D9FF9B
:1015A00096C0DAFF2E0EDF6E0001954B962B0001E0
:1015B000BA51FAEC0BF076C0A1F077C0A2F078C077
:1015C000A3F0B7C06AF0B8C06BF0B9C06CF0A1C0AE
:1015D00067F0A2C068F0A3C069F069EC10F067C0C2
:1015E00027F068C028F069C029F0EBEC12F027C0A2
:1015F000AFF028C0B0F029C0B1F02AC0B2F073D06B
:10160000AFC013F0B0C014F0B1C015F0B2C016F006
:101610000001BA51040D010EF324F66E080EF420F9
:10162000F76E0900F5CF17F00900F5CF18F00900A3
:10163000F5CF19F00A00F5CF1AF0ABEC14F013C097
:10164000ABF014C0ACF015C0ADF016C0AEF0ABC03E
:1016500013F0ACC014F0ADC015F0AEC016F00A0E19
:10166000176E000E186E000E196E000E1A6E98ECB2
:1016700015F013C0ABF014C0ACF015C0ADF016C03F
:10168000AEF00001AB51300F95C0D9FF96C0DAFF24
:10169000DF6E0001954B962BAFC013F0B0C014F075
:1016A000B1C015F0B2C016F00001BA51040D010E20
:1016B000F324F66E080EF420F76E0900F5CF17F04C
:1016C0000900F5CF18F00900F5CF19F00A00F5CFA1
:1016D0001AF098EC15F013C0AFF014C0B0F015C0BC
:1016E000B1F016C0B2F00001BA070001BA29D8B4AF
:1016F0000ED086D795C0D9FF96C0DAFF300EDF6EC8
:101700000001954B962B0001B507D8A0B607000144
:10171000B5510001B611D8B457D0ECD70001B5517E
:101720000001B611D8A40DD00001AF510001B011D5
:101730000001B1110001B211D8A403D00001B54BD2
:10174000B62B800E0001BABF7F0E00019B6F000117
:10175000B5510001BA5D0001B651800A00019B59E4
:10176000D8B003D0B5C0BAF018D00001B651800A85
:1017700000019B6F0001BA510001B55D800E0001B0
:10178000BABF7F0E00019B59D8B007D00001BA51F3
:101790000001B56FB66BB5BFB607030E0001A91502
:1017A00000019B6F000E0001AA1500019C6F000153
:1017B0009B5100019C11D8B407D095C0D9FF96C0A9
:1017C000DAFF2D0EDF6E4FD497C0F6FF98C0F7FFFB
:1017D0000001974B982B0800F5CFBAF00001BA51E1
:1017E000D8A44EEF04F095C0D9FF96C0DAFF000EE2
:1017F000DF6E120000017C6F00017CAF04D100019C
:101800007C6D00017C51800A120FD8A094D0000E8C
:10181000246E030E236E000E1C6E0A0E1B6E000E4D
:10182000166E640E156E00017C51136E146A13BEA1
:1018300014062AEC15F013C019F014C01AF069EC64
:1018400014F0090E1924216E000E1A20226EE2EC0B
:1018500016F0500E2124F66E080E2220F76E0900B5
:10186000F5CF6AF00900F5CF6BF00A00F5CF6CF008
:10187000000E1C6E640E1B6E00017C51196E1A6AFC
:1018800019BE1A0669EC14F0120E1924216E000E0E
:101890001A20226E000E246E030E236EE2EC16F068
:1018A000500E2124F66E080E2220F76E0900F5CFA7
:1018B00067F00900F5CF68F00A00F5CF69F069EC30
:1018C00010F067C079F068C07AF069C07BF079C029
:1018D00067F07AC068F07BC069F0000E246E030EDA
:1018E000236E000E166E0A0E156E00017C51136EEB
:1018F000146A13BE14062AEC15F013C021F014C0AC
:1019000022F0E2EC16F0500E2124F66E080E222092
:10191000F76E0900F5CF6AF00900F5CF6BF00A0009
:10192000F5CF6CF069EC10F067C076F068C077F026
:1019300069C078F0120000017C51800A750FD8A0B0
:101940004FD0000E1C6E0A0E1B6E00017C51196EEA
:101950001A6A19BE1A0669EC14F0090E1924216ED0
:10196000000E1A20226E000E246E030E236EE2EC8F
:1019700016F0500E2124F66E080E2220F76E090094
:10198000F5CF67F00900F5CF68F00A00F5CF69F0F0
:10199000000E246E030E236E000E166E0A0E156ED8
:1019A00000017C51136E146A13BE14062AEC15F064
:1019B00013C021F014C022F0E2EC16F0500E2124E6
:1019C000F66E080E2220F76E0900F5CF6AF00900C6
:1019D000F5CF6BF00A00F5CF6CF069EC10F0A4D7EE
:1019E00000017C51030D500EF324F66E080EF42016
:1019F000F76E0900F5CF76F00900F5CF77F00A0011
:101A0000F5CF78F0120000017C51800A120FD8A0A7
:101A100094D0000E246E030E236E000E1C6E0A0E70
:101A20001B6E000E166E640E156E00017C51136E57
:101A3000146A13BE14062AEC15F013C019F014C072
:101A40001AF069EC14F0090E1924216E000E1A2008
:101A5000226EE2EC16F0290E2124F66E080E2220EA
:101A6000F76E0900F5CF6AF00900F5CF6BF00A00B8
:101A7000F5CF6CF0000E1C6E640E1B6E00017C51E5
:101A8000196E1A6A19BE1A0669EC14F0120E19249E
:101A9000216E000E1A20226E000E246E030E236E9D
:101AA000E2EC16F0290E2124F66E080E2220F76EC5
:101AB0000900F5CF67F00900F5CF68F00A00F5CF0F
:101AC00069F069EC10F067C079F068C07AF069C01D
:101AD0007BF079C067F07AC068F07BC069F0000ED7
:101AE000246E030E236E000E166E0A0E156E000194
:101AF0007C51136E146A13BE14062AEC15F013C041
:101B000021F014C022F0E2EC16F0290E2124F66E2A
:101B1000080E2220F76E0900F5CF6AF00900F5CF14
:101B20006BF00A00F5CF6CF069EC10F067C076F04E
:101B300068C077F069C078F0120000017C51800A1B
:101B4000750FD8A04FD0000E1C6E0A0E1B6E000140
:101B50007C51196E1A6A19BE1A0669EC14F0090E46
:101B60001924216E000E1A20226E000E246E030E20
:101B7000236EE2EC16F0290E2124F66E080E2220C8
:101B8000F76E0900F5CF67F00900F5CF68F00A009D
:101B9000F5CF69F0000E246E030E236E000E166E54
:101BA0000A0E156E00017C51136E146A13BE1406E2
:101BB0002AEC15F013C021F014C022F0E2EC16F06C
:101BC000290E2124F66E080E2220F76E0900F5CFAB
:101BD0006AF00900F5CF6BF00A00F5CF6CF069EC04
:101BE00010F0A4D700017C51030D290EF324F66EEA
:101BF000080EF420F76E0900F5CF76F00900F5CF56
:101C000077F00A00F5CF78F0120082C086F000016C
:101C1000876B886B000181350001863701E387817E
:101C20000001865100018B6F85C086F00001876B33
:101C3000886B000184350001863701E3878100014C
:101C4000865100018A6F00018B510001D8B411D078
:101C500000018A5100018B5DD8B012D000018B5178
:101C6000000800018A250001866F180E00018665B4
:101C700007D083C080F084C081F085C082F012005C
:101C800000018A510001D8B411D000018B5100012C
:101C90008A5DD8B012D000018A51000800018B255E
:101CA0000001866F180E0001866507D080C080F0A5
:101CB00081C081F082C082F01200060E0001896F9F
:101CC000000182AF02D00001898F000185AF02D0F0
:101CD0000001898D0001818FFF0E00018017FF0E2A
:101CE00000018117000E000182170001848FFF0E92
:101CF00000018317FF0E00018417000E00018517F5
:101D000000018A5100018B5DD8B025D00001D89028
:101D100083378437853700018A0700018B51000122
:101D20008A19D8B411D00001890789C086F0070E3E
:101D300000018617D8B408D0E9D70001D8908233C3
:101D40008133803300018B2B00018A5100018B19F4
:101D5000D8B42BD0F2D700018B5100018A5DD8B0E6
:101D600024D00001D89080378137823700018B075B
:101D700000018B5100018A19D8B411D000018907E4
:101D800089C086F0070E00018617D8B408D0E9D7BD
:101D90000001D89085338433833300018A2B0001FE
:101DA0008A5100018B19D8A4F3D7000189AF12D052
:101DB000FF0E0001801BFF0E0001811BFF0E0001C2
:101DC000821B010E00018027000E00018123000EFE
:101DD00000018223000189AD12D0FF0E0001831B98
:101DE000FF0E0001841BFF0E0001851B010E000188
:101DF0008327000E00018423000E00018523000EBE
:101E00000001896F00018051000183270001815189
:101E1000000184230001825100018523000185AF68
:101E200015D0FF0E0001831BFF0E0001841BFF0E67
:101E30000001851B010E00018327000E0001842391
:101E4000000E00018523010E0001896F83C013F08D
:101E500084C014F085C015F08BC016F089C017F04F
:101E6000C9EC13F013C080F014C081F015C082F0EB
:101E7000120000017F6F6D0E00017F65A2D0000E81
:101E8000246E030E236E000E1C6E0A0E1B6E000ED7
:101E9000166E640E156E7FC013F0146A2AEC15F0EE
:101EA00013C019F014C01AF069EC14F0090E1924CB
:101EB000216E000E1A20226EE2EC16F0500E212444
:101EC000F66E080E2220F76E0900F5CF6AF00900C1
:101ED000F5CF6BF00A00F5CF6CF0000E1C6E640EAF
:101EE0001B6E7FC019F01A6A69EC14F0120E1924E7
:101EF000216E000E1A20226E000E246E030E236E39
:101F0000E2EC16F0500E2124F66E080E2220F76E39
:101F10000900F5CF67F00900F5CF68F00A00F5CFAA
:101F200069F069EC10F067C07CF068C07DF069C0B2
:101F30007EF0000E246E030E236E000E166E0A0E47
:101F4000156E7FC013F0146A2AEC15F013C021F04F
:101F500014C022F0E2EC16F0500E2124F66E080EAA
:101F60002220F76E0900F5CF6AF00900F5CF6BF07B
:101F70000A00F5CF6CF07CC067F07DC068F07EC0D1
:101F800069F069EC10F067C079F068C07AF069C058
:101F90007BF079C067F07AC068F07BC069F0000E12
:101FA00000016A6F000E00016B6F3F0E00016C6F45
:101FB00069EC10F067C076F068C077F069C078F01F
:101FC00012000A0E00017F6560D0000E246E030E21
:101FD000236E000E166E0A0E156E7FC013F0146A83
:101FE0002AEC15F013C021F014C022F0E2EC16F038
:101FF000500E2124F66E080E2220F76E0900F5CF50
:102000006AF00900F5CF6BF00A00F5CF6CF0000E16
:102010001C6E0A0E1B6E7FC019F01A6A69EC14F070
:10202000090E1924216E000E1A20226E000E246E55
:10203000030E236EE2EC16F0500E2124F66E080E0D
:102040002220F76E0900F5CF67F00900F5CF68F0A0
:102050000A00F5CF69F069EC10F067C07CF068C049
:102060007DF069C07EF07CC067F07DC068F07EC006
:1020700069F0000E00016A6F000E00016B6F3F0EE9
:1020800000016C6F69EC10F095D700017F51030DD2
:10209000500EF324F66E080EF420F76E0900F5CF0B
:1020A00067F00900F5CF68F00A00F5CF69F0000E7F
:1020B00000016A6F000E00016B6F3F0E00016C6F34
:1020C00069EC10F067C076F068C077F069C078F00E
:1020D000120069C06DF000016E6B6F6B0001683516
:1020E00000016D3701E36E8100016D510001706FD9
:1020F00000017051D8A40AD0000E0001676F000ED5
:102100000001686F000E0001696F12006CC06DF075
:1021100000016E6B6F6B00016B3500016D3701E3E1
:102120006E8100016D510001756F00017551D8A4D9
:102130000AD0000E0001676F000E0001686F000EEC
:102140000001696F1200000175517B0F00017027BB
:1021500069C075F000016C510001751B800E000113
:1021600075170001688F00016B8FFF0E00016A1761
:10217000FF0E00016B17000E00016C17000E00012E
:10218000716F000E0001726F000E0001736F070E79
:102190000001746F000167A10CD000016A510001B9
:1021A000712700016B510001722300016C51000185
:1021B00073230001D8906933683367330001D890E6
:1021C0006A376B376C370001742FE4D7090E0001B2
:1021D000746F000167A10CD000016A5100017127E2
:1021E00000016B510001722300016C510001732347
:1021F0000001D8906933683367330001D890733396
:10220000723371330001742FE4D771C013F072C0C0
:1022100014F073C015F070C016F075C017F0C9EC5B
:1022200013F013C067F014C068F015C069F0120015
:102230007FC083F00001846B856B00017E35000157
:10224000833701E384810001835100018A6F00011B
:102250008A51D8A40AD0000E00017D6F000E000143
:102260007E6F000E00017F6F120082C083F00001BC
:10227000846B856B000181350001833701E3848124
:102280000001835100018B6F00018B51D8A40AD04B
:10229000000E00017D6F000E00017E6F000E000138
:1022A0007F6F1200000E0001876F000E0001886F23
:1022B000000E0001896F00018B51890F00018A5FB8
:1022C0007FC08BF00001825100018B1B800E00014A
:1022D0008B1700017E8FFF0E00017D17FF0E00019E
:1022E0007E17000E00017F170001818FFF0E000195
:1022F0008017FF0E00018117000E00018217180ED3
:102300000001866F0001D890873788378937000130
:10231000805100017D5D0001815100017E59000165
:10232000825100017F59D8A00ED0000180510001D8
:102330007D5F0001815100017E5B0001825100013F
:102340007F5B000187810001D8907D377E377F3722
:102350000001862FD7D787C013F088C014F089C03A
:1023600015F08AC016F08BC017F0C9EC13F013C03B
:102370007DF014C07EF015C07FF0120015C019F07A
:102380001A6A1B6A1434193601E31A801950216E37
:102390002150D8A409D0000E136E000E146E000E4A
:1023A000156E000E166E120018C019F01A6A1B6A1C
:1023B0001734193601E31A801950206E2050D8A422
:1023C00009D0000E136E000E146E000E156E000E76
:1023D000166E1200148EFF0E1316FF0E1416000E4A
:1023E0001516178EFF0E1616FF0E1716000E18166E
:1023F000000E1C6E000E1D6E000E1E6E000E1F6E77
:102400007F0E215E2050980F215E180E206ED8900E
:102410001C361D361E361F361650135C17501458C6
:1024200018501558D8A007D01650135E1750145ADC
:102430001850155A1C80D890133614361536202E95
:10244000E6D721AE16D02150800A970FD8B009D018
:10245000000E136E000E146E000E156E000E166E3A
:102460001200D8901F321E321D321C32213EF9D785
:1024700015D0170E21640FD0000E136E000E146ECF
:10248000000E156E000E166E1200D8901C361D360A
:102490001E361F3621062150D8A4F7D71CC013F0D2
:1024A0001DC014F01EC015F01FC016F01200153428
:1024B00016341E6E1E50D8A409D0000E136E000EE6
:1024C000146E000E156E000E166E120018341934BC
:1024D0001D6E1D50D8A409D0000E136E000E146E90
:1024E000000E156E000E166E1200158EFF0E1316DE
:1024F000FF0E1416FF0E1516000E1616188EFF0E80
:102500001616FF0E1716FF0E1816000E1916000EDF
:10251000196E000E1A6E000E1B6E000E1C6E7F0EE2
:102520001E5E1D50A00F1E5E200E1D6ED890193627
:102530001A361B361C361650135C17501458185098
:10254000155819501658D8A009D01650135E1750B8
:10255000145A1850155A1950165A1980D890133613
:102560001436153616361D2EE1D71EAE16D01E5067
:10257000800A9F0FD8B009D0000E136E000E146EA3
:10258000000E156E000E166E1200D8901C321B3213
:102590001A3219321E3EF9D715D01F0E1E640FD005
:1025A000000E136E000E146E000E156E000E166EE9
:1025B0001200D89019361A361B361C361E061E50CD
:1025C000D8A4F7D719C013F01AC014F01BC015F027
:1025D0001CC016F0120029C02BF02C6A2D6A28347A
:1025E0002B3601E32C802B50356E3550D8A409D002
:1025F000000E276E000E286E000E296E000E2A6E49
:102600001200170E2B6E27C02CF028C02DF029C009
:102610002EF02B282F6E04D0D8902E322D322C3253
:102620002F2EFAD72C50306E288EFF0E2716FF0E55
:102630002816000E29162750316E2850326E295068
:10264000336E346A8E0E355E35AE16D03550800A44
:102650008F0FD8B009D0000E276E000E286E000E26
:10266000296E000E2A6E1200D89034323332323284
:102670003132353EF9D715D0170E35640FD0000E24
:10268000276E000E286E000E296E000E2A6E1200B4
:10269000D890313632363336343635063550D8A4F4
:1026A000F7D73050D8B408D0341E331E321E316CE8
:1026B000000E32223322342231C027F032C028F0FB
:1026C00033C029F034C02AF0120000018EAF1DD0B3
:1026D0008CC092F08DC093F08EC094F00001921FD8
:1026E000931F941F922B000E93239423000E00013E
:1026F000922500018C6F000E0001932100018D6F67
:10270000800E0001942100018E6F000191AF1DD059
:102710008FC092F090C093F091C094F00001921F8E
:10272000931F941F922B000E93239423000E0001FD
:10273000922500018F6F000E000193210001906F20
:10274000800E000194210001916F000E00018C1B8E
:10275000000E00018D1B800E00018E1B000E00017B
:102760008F1B000E0001901B800E0001911B0001C9
:102770008F5100018C5D0001905100018D590001C5
:10278000915100018E59D8B002D0D8901200D88053
:1027900012001650D8B405D0135014101510D8A438
:1027A0000CD0000E136E000E146E000E156E12008B
:1027B000162AD890153214321332000E1314186EE4
:1027C000000E1414196EFE0E15141A6E18501910FE
:1027D0001A10D8B40CD0ECD7162A010E1326000E0E
:1027E0001422000E1522D890153214321332000E26
:1027F0001314186E000E1414196EFF0E15141A6EB1
:10280000185019101A10D8B406D0E6D71606D8906A
:1028100013361436153614BE03D0020E1660F6D7E2
:1028200016A0149ED8901632165015121750D8A420
:10283000158E13C013F014C014F015C015F012005B
:10284000000E0001F06F8FEC17F052EC17F0000E45
:10285000146E050E136E18EC17F04EEC16F00C0EFD
:10286000B5EC16F0F28CF28E85EC16F037EC17F022
:102870000009D8B4FBD7BB0E196E000E1A6E6AECB5
:1028800016F00001EF6FBBC0F0F0770E166E080E69
:10289000176EECEC14F0DB0E0001956F000E0001DA
:1028A000966F860E0001976F080E0001986FF0C0BA
:1028B00099F000019A6B46EC04F0DB0E166E000EE8
:1028C000176EECEC14F0000E166E000E15EC16F000
:1028D000CDD7000E1E6E1CAE06D01B6C1C1ED8B0D1
:1028E0001C2A010E1E6E1AAE06D0196C1A1ED8B024
:1028F0001A2A010E1E1A000E206E000E1F6E1B50AB
:102900001C10D8B41CD0010E1D6E04D0D8901B36FC
:102910001C361D2A1CAEFAD7D8901F3620361B5005
:10292000195C1C501A58D8A005D01B50195E1C50B9
:102930001A5A1F80D8901C321B321D2EEDD71E5004
:10294000D8B404D01F6C201ED8B0202A1FC019F0A4
:1029500020C01AF01200000E1B6E000E1C6E000E3E
:102960001D6E000E1E6E1750181019101A10D8B4D4
:102970002AD0010E1F6E06D0D89017361836193699
:102980001A361F2A1AAEF8D7D8901B361C361D36B9
:102990001E361750135C18501458195015581A50F9
:1029A0001658D8A009D01750135E1850145A195051
:1029B000155A1A50165A1B80D8901A3219321832EA
:1029C00017321F2EE1D71BC013F01CC014F01DC01E
:1029D00015F01EC016F01200000E1A6E1DD01A500F
:1029E000010D16C018F017C019F0F3501826F45056
:1029F000192218C0F6FF19C0F7FFF86A070EF7642E
:102A000003D00800F55005D0F6CFE9FFF7CFEAFF75
:102A1000EF50F5EC16F01A2A1A50010D16C018F0F6
:102A200017C019F0F3501826F450192218C0F6FFF9
:102A300019C0F7FFF86A070EF76403D00800F550D5
:102A400005D0F6CFE9FFF7CFEAFFEF500009D8B481
:102A50001200C5D7000E186E14AE06D0136C141EEB
:102A6000D8B0142A010E186E16AE04D0156C161EBE
:102A7000D8B0162A15501610D8B418D0010E176EFB
:102A800004D0D89015361636172A16AEFAD7155038
:102A9000135C16501458D8A004D01550135E16506D
:102AA000145AD89016321532172EF1D71850D8B4C0
:102AB00004D0136C141ED8B0142A13C013F014C021
:102AC00014F012008E0E3A6E06D0D8903932383299
:102AD000373236323A2A000E36140001606F000E8B
:102AE00037140001616F000E38140001626FFF0E91
:102AF00039140001636F0001605100016111000190
:102B0000621100016311D8A4E0D736C013F037C0BA
:102B100014F038C015F03AC016F0000E176EC9EC6C
:102B200013F013C036F014C037F015C038F012009F
:102B30001750181019101A10D8B424D0010E1B6E9B
:102B400006D0D8901736183619361A361B2A1AAE00
:102B5000F8D71750135C18501458195015581A50BC
:102B60001658D8A008D01750135E1850145A195090
:102B7000155A1A50165AD8901A321932183217327A
:102B80001B2EE7D713C013F014C014F015C015F0B6
:102B900016C016F0120000018F51000190110001C3
:102BA0009111D8B409D0000E00018F1B000E000156
:102BB000901B800E0001911B8CC080F08DC081F0B5
:102BC0008EC082F08FC083F090C084F091C085F0F9
:102BD00005EC0EF080C08CF081C08DF082C08EF0CC
:102BE0001200000E8D6E000E8C6E000E896E000EAF
:102BF0008A6E000E8B6E070E966E92689368C70EF3
:102C0000946E000E956EC40E0F015D6F000E0F01E5
:102C10005C6F000E0F015E6F070E0F015F6F2F0ECE
:102C20000F015B6F8568F19E12001B6E020E16602D
:102C300012000F0E1B6401D012001604D8B402D08B
:102C4000800E01D0C00E1BC017F0186A1710196E45
:102C500018501A6E1950B5EC16F0FA0E00D0E82E86
:102C6000FDD7120016D013C0D9FF14C0DAFFDF5011
:102C7000C96E9EA6FED79E9615C0D9FF16C0DAFF74
:102C8000C9CFDFFF1706D8A01806134A142A154A21
:102C9000162A17501810D8B41200E5D7000E836E0C
:102CA000000E956E838E050E166EDE0EE82EFED794
:102CB000162EFCD7320EB5EC16F0280EB5EC16F039
:102CC0000C0EB5EC16F0010EB5EC16F0060EB5ECD8
:102CD00016F012008A98610E7FEC17F01B6E19C077
:102CE00013F01AC014F019C015F01AC016F0000E37
:102CF000186E200E176E32EC16F08A88400E146E95
:102D0000070E5EEC17F01B501200020E146E050E3B
:102D10005EEC17F0260E146E060E5EEC17F0200E19
:102D2000146E110E5EEC17F0000E4A6E4F0E146E0C
:102D3000000E5EEC17F08A8612000001645100015B
:102D4000651100016611D8B409D0000E0001641BA2
:102D5000000E0001651B800E0001661B64C064F05C
:102D600065C065F066C066F01200156EFA0E00D000
:102D7000E82EFDD7000E136E1550CCEC16F015386A
:102D8000F00B156E530EE82EFED700F0000E136EFA
:102D90001550CCEC16F01200146E14380F0B146E94
:102DA00014500F0B146E8350F00B836E835014106D
:102DB000836E13B002D0839801D08388839A838C6A
:102DC000839C120021502302F3CF25F0F4CF26F08C
:102DD00021502402F350262622502302F3502626A7
:102DE00025C021F026C022F01200156EFA0E00D088
:102DF000E82EFDD7010E136E1550CCEC16F01538E9
:102E0000F00B156E010E136E1550CCEC16F012007F
:102E1000C69A93800F015C91928A949E949CC69866
:102E2000C78CC78EC690C692C694C696C68A120034
:102E30000AD0040E156E3E0EE82EFED7152EFCD7D6
:102E40001306D8A0140613501410D8B41200F1D7EA
:102E5000156E000E146E3A0E156005D02F0E156417
:102E600002D0010E146E14C013F0133012004A5039
:102E7000D8B402D0000E12008A98FF0E7FEC17F033
:102E8000146E8A881450400B120000EE3BF0100EB6
:102E9000EE6AE806FDE14B904B92000EF86E0001E1
:102EA00020EF14F0939893968A968A880F015C9588
:102EB0009384F198F08808EC17F01200156E8A9848
:102EC00015501F0B20097FEC17F014507FEC17F002
:102ED0008A881200036E8A9803501F0B200987EC22
:102EE00017F0025087EC17F08A881200700ED36E2C
:102EF000000ED26E000E9B6E000EB56E1200136EA9
:102F000013C0C9FF9EA6FED79E96C9501200016E3F
:102F100001C0C9FF9EA6FED79E96C9501200F1ECD3
:082F200015F076EC17F0120029
:020000040020DA
:08000000FFFFFFFFFFFFFFFF00
:020000040030CA
:0E00000000625E3CFFD385FF0FC00FE00F4093
:00000001FF
