:0400000065EF00F0B8
:100008003482FACF04F0FBCF05F0E9CF06F0EACF4F
:1000180007F0E1CF08F0E2CF09F0D9CF0AF0DACF44
:100028000BF0F3CF0CF0F4CF0DF0F6CF0EF0F7CFC6
:100038000FF0F8CF10F0F5CF11F0F0A224D08A9885
:10004800FF0E81EC02F0126E8A8812AA07D0200EE9
:10005800026E070E59EC02F0000E336E12A80BD098
:10006800100E026E070E59EC02F08A860D0EE82E6D
:10007800FED700F08A9612A005D08A98E10E81EC8E
:1000880002F08A88F09211C0F5FF10C0F8FF0FC087
:10009800F7FF0EC0F6FF0DC0F4FF0CC0F3FF0BC056
:1000A800DAFF0AC0D9FF09C0E2FF08C0E1FF07C0B4
:1000B800EAFF06C0E9FF05C0FBFF04C0FAFF34925F
:1000C800110028EF02F01E6E020E146E050E41ECB0
:1000D80002F0260E146E060E41EC02F04C0E146E61
:1000E800000E41EC02F02F0E146E040E41EC02F0EB
:1000F8008AD0E70E236E23C022F022C021F021C04F
:1001080020F020C01FF01F0E1C6E000E1D6E65EC47
:1001180002F01F0E1C6E000E1D6E35EC02F086D02C
:10012800C20E236E23C022F022C021F021C020F08D
:1001380020C01FF01F0E1C6E000E1D6E65EC02F035
:100148001F0E1C6E000E1D6E35EC02F06FD0C20E35
:10015800236E23C022F022C021F021C020F0C30E5C
:100168001F6E1F0E1C6E000E1D6E65EC02F01F0E3A
:100178001C6E000E1D6E35EC02F058D0C20E236EB8
:1001880023C022F022C021F021C020F0C40E1F6E2F
:100198001F0E1C6E000E1D6E65EC02F01F0E1C6E0D
:1001A800000E1D6E35EC02F041D0C20E236E23C046
:1001B80022F022C021F021C020F0C50E1F6E1F0EB4
:1001C8001C6E000E1D6E65EC02F01F0E1C6E000EFC
:1001D8001D6E35EC02F02AD0C20E236E23C022F029
:1001E80022C021F021C020F0C60E1F6E1F0E1C6E0B
:1001F800000E1D6E65EC02F01F0E1C6E000E1D6ECB
:1002080035EC02F013D01E50000AD8B472D7010A98
:10021800D8B486D7030AD8B49AD7010AD8B4AED7C7
:10022800070AD8B4C2D7010AD8B4D6D7000E336E9D
:100238004E0E146E000E41EC02F01200000E00018A
:10024800816F000E806F4DEC02F0000E146E050EEB
:10025800136E18EC02F0F28CF28E000E67EC00F0D0
:10026800000E0001816F000E806F000E146E000EEC
:10027800136E8FEC02F089EC02F00009D8B4FBD7BA
:100288006FEC02F013C080F014C081F0000E000182
:10029800826F1F0E0001826501D019D080C013F053
:1002A80081C014F0000E166E050E156EE3EC01F019
:1002B80013C019F014C01AF0030E1C6E1B687FECF3
:1002C80001F019500001826F0001822BE2D7000172
:1002D8008251010D600EF324D96E000EF420DA6EFF
:1002E80082C0DFFF600E186E000E196E200E1A6EA7
:1002F800A8EC01F0B5D7000E1F6E000E1E6E1B5045
:100308001C10D8B41CD0010E1D6E04D0D8901B361A
:100318001C361D2A1CAEFAD7D8901E361F361B5025
:10032800195C1C501A58D8A005D01B50195E1C50D7
:100338001A5A1E80D8901C321B321D2EEDD71EC0B3
:1003480019F01FC01AF012003350D8A4FDD78A96AE
:10035800010E336E4E0E146E000E41EC02F08A98B8
:10036800E10E79EC02F08A888A98A00E79EC02F006
:1003780018C013F019C014F01AC015F0166ACDECA5
:1003880001F08A888A860D0EE82EFED700F08A963C
:10039800120010D013C0D9FF14C0DAFFDF50C96EA5
:1003A8009EA6FED79E96C9CF17F01506D8A01606AA
:1003B800134A142A15501610D8B41200EBD713504C
:1003C8001502F3CF17F0F4CF18F013501602F350BC
:1003D800182614501502F350182617C013F018C029
:1003E80014F012001B6E8A981B501F0B200979EC21
:1003F80002F018C013F019C014F01AC015F0166AEC
:10040800CDEC01F08A881200C69A93800F015C91A6
:10041800928A949E949CC698C78CC78EC690C692A2
:10042800C694C696C68A12000AD0340E156EF20E0D
:10043800E82EFED7152EFCD71306D8A014061350A5
:100448001410D8B41200F1D700EE24F0100EEE6AA2
:10045800E806FDE134903492000EF86E000122EFB8
:1004680001F08A961CC018F01DC019F0050E1A6E0E
:100478000A0EF6EC01F08A861200156E8A9815505D
:100488001F0B200979EC02F0145079EC02F08A88ED
:100498001200939893968A968A880F015C959384A4
:1004A800F198F08808EC02F01200036E8A98035065
:1004B8001F0B200981EC02F0025081EC02F08A88BF
:1004C80012001CC018F01DC019F0050E1A6E100E8F
:1004D800F6EC01F01200C450166E156AC3501524CC
:1004E800136E000E1620146E1200136E13C0C9FF8F
:1004F8009EA6FED79E96C9501200016E01C0C9FF84
:100508009EA6FED79E96C9501200C2B202D0010E16
:0A0518001200000E1200C282120051
:020000040020DA
:08000000FFFFFFFFFFFFFFFF00
:020000040030CA
:0E00000000625E3CFFD385FF0FC00FE00F4093
:00000001FF
