:0400000065EF00F0B8
:100008002C82FACF04F0FBCF05F0E9CF06F0EACF57
:1000180007F0E1CF08F0E2CF09F0D9CF0AF0DACF44
:100028000BF0F3CF0CF0F4CF0DF0F6CF0EF0F7CFC6
:100038000FF0F8CF10F0F5CF11F0F0A224D08A9885
:10004800FF0E46EC01F0126E8A8812AA07D0200E25
:10005800026E070E32EC01F0000E2B6E12A80BD0C8
:10006800100E026E070E32EC01F08A860D0EE82E95
:10007800FED700F08A9612A005D08A98E10E46ECC9
:1000880001F08A88F09211C0F5FF10C0F8FF0FC088
:10009800F7FF0EC0F6FF0DC0F4FF0CC0F3FF0BC056
:1000A800DAFF0AC0D9FF09C0E2FF08C0E1FF07C0B4
:1000B800EAFF06C0E9FF05C0FBFF04C0FAFF2C9267
:1000C80011000DEF01F0000E0001816F1AEC01F034
:1000D800000E146E050E136EEFEC00F0F00E951680
:1000E8000F0E8C12F28CF28EC7EC00F0FFEC00F0D1
:1000F8000009D8B4FBD7600E196E000E1A6EACEC6E
:1001080000F00001806F60C081F00F0E8C120001BA
:100118006051FF0A8C16EAD716D013C0D9FF14C055
:10012800DAFFDF50C96E9EA6FED79E9615C0D9FF8E
:1001380016C0DAFFC9CFDFFF1706D8A01806134A82
:10014800142A154A162A17501810D8B41200E5D7E1
:100158008A98610E3EEC01F01B6E19C013F01AC0AC
:1001680014F019C015F01AC016F0000E186E200E03
:10017800176E90EC00F08A88400E146E070E26EC7D
:1001880001F01B501200020E146E050E26EC01F051
:10019800260E146E060E26EC01F0200E146E110EBB
:1001A80026EC01F0000E2B6E4F0E146E000E26EC9E
:1001B80001F08A861200C69A93800F015C91928A98
:1001C800949E949CC698C78CC78EC690C692C694B7
:1001D800C696C68A12000AD0340E156EF20EE82EA4
:1001E800FED7152EFCD71306D8A0140613501410EA
:1001F800D8B41200F1D72B50D8B402D0000E120098
:100208008A98FF0E3EEC01F0146E8A881450400B59
:10021800120000EE1CF0100EEE6AE806FDE12C90CC
:100228002C92000EF86E000167EF00F093989396F9
:100238008A968A880F015C959384F198F088DFECA0
:1002480000F01200156E8A9815501F0B20093EEC1D
:1002580001F014503EEC01F08A881200036E8A986F
:1002680003501F0B200946EC01F0025046EC01F048
:100278008A881200136E13C0C9FF9EA6FED79E96E9
:10028800C9501200016E01C0C9FF9EA6FED79E96F6
:04029800C950120037
:020000040020DA
:08000000FFFFFFFFFFFFFFFF00
:020000040030CA
:0E00000000655F3CFFD385FF0FC00FE00F408F
:00000001FF
