:0400000065EF00F0B8
:100008003482FACF04F0FBCF05F0E9CF06F0EACF4F
:1000180007F0E1CF08F0E2CF09F0D9CF0AF0DACF44
:100028000BF0F3CF0CF0F4CF0DF0F6CF0EF0F7CFC6
:100038000FF0F8CF10F0F5CF11F0F0A224D08A9885
:10004800FF0E2CEC02F0126E8A8812AA07D0200E3E
:10005800026E070E0EEC02F0000E336E12A80BD0E3
:10006800100E026E070E0EEC02F08A860D0EE82EB8
:10007800FED700F08A9612A005D08A98E10E2CECE3
:1000880002F08A88F09211C0F5FF10C0F8FF0FC087
:10009800F7FF0EC0F6FF0DC0F4FF0CC0F3FF0BC056
:1000A800DAFF0AC0D9FF09C0E2FF08C0E1FF07C0B4
:1000B800EAFF06C0E9FF05C0FBFF04C0FAFF34925F
:1000C8001100DDEF01F01E6E020E146E050EF6EC47
:1000D80001F0260E146E060EF6EC01F04C0E146EAE
:1000E800000EF6EC01F02F0E146E040EF6EC01F083
:1000F8008AD0E70E236E23C022F022C021F021C04F
:1001080020F020C01FF01F0E1C6E000E1D6E1AEC92
:1001180002F01F0E1C6E000E1D6EEAEC01F086D078
:10012800C20E236E23C022F022C021F021C020F08D
:1001380020C01FF01F0E1C6E000E1D6E1AEC02F080
:100148001F0E1C6E000E1D6EEAEC01F06FD0C20E81
:10015800236E23C022F022C021F021C020F0C30E5C
:100168001F6E1F0E1C6E000E1D6E1AEC02F01F0E85
:100178001C6E000E1D6EEAEC01F058D0C20E236E04
:1001880023C022F022C021F021C020F0C40E1F6E2F
:100198001F0E1C6E000E1D6E1AEC02F01F0E1C6E58
:1001A800000E1D6EEAEC01F041D0C20E236E23C092
:1001B80022F022C021F021C020F0C50E1F6E1F0EB4
:1001C8001C6E000E1D6E1AEC02F01F0E1C6E000E47
:1001D8001D6EEAEC01F02AD0C20E236E23C022F075
:1001E80022C021F021C020F0C60E1F6E1F0E1C6E0B
:1001F800000E1D6E1AEC02F01F0E1C6E000E1D6E16
:10020800EAEC01F013D01E50000AD8B472D7010AE4
:10021800D8B486D7030AD8B49AD7010AD8B4AED7C7
:10022800070AD8B4C2D7010AD8B4D6D7000E336E9D
:100238004E0E146E000EF6EC01F01200000E0001D6
:10024800806F95988C8802EC02F0000E146E050EF3
:10025800136ECDEC01F0F28CF28E000E67EC00F01C
:100268008C98000E0001816F1F0E0001816501D07E
:100278000ED000018151010D600EF324D96E000EDD
:10028800F420DA6E81C0DFFF0001812BEDD780C03A
:1002980060F0000180290001616F600E186E000E89
:1002A800196E200E1A6E70EC01F00001802B0F0EF3
:1002B8000001806503D0000E0001806F000E146EEF
:1002C800320E136ECDEC01F08C88000E146E320ED7
:1002D800136ECDEC01F0C4D73350D8A4FDD78A965D
:1002E800010E336E4E0E146E000EF6EC01F08A9875
:1002F800E10E24EC02F08A888A98A00E24EC02F021
:1003080018C013F019C014F01AC015F0166A95EC4D
:1003180001F08A888A860D0EE82EFED700F08A96AC
:10032800120010D013C0D9FF14C0DAFFDF50C96E15
:100338009EA6FED79E96C9CF17F01506D8A016061A
:10034800134A142A15501610D8B41200EBD71B6E96
:100358008A981B501F0B200924EC02F018C013F0D8
:1003680019C014F01AC015F0166A95EC01F08A88C5
:100378001200C69A93800F015C91928A949E949C75
:10038800C698C78CC78EC690C692C694C696C68AAB
:1003980012000AD0340E156EF20EE82EFED7152E76
:1003A800FCD71306D8A0140613501410D8B41200A2
:1003B800F1D700EE24F0100EEE6AE806FDE1349065
:1003C8003492000EF86E000122EF01F08A961CC0EC
:1003D80018F01DC019F0050E1A6E0A0EABEC01F0EC
:1003E8008A861200156E8A9815501F0B200924EC76
:1003F80002F0145024EC02F08A8812009398939625
:100408008A968A880F015C959384F198F088BDECF0
:1004180001F01200036E8A9803501F0B20092CEC80
:1004280002F002502CEC02F08A8812001CC018F06E
:100438001DC019F0050E1A6E100EABEC01F012007B
:10044800136E13C0C9FF9EA6FED79E96C950120010
:10045800016E01C0C9FF9EA6FED79E96C950120024
:020000040020DA
:08000000FFFFFFFFFFFFFFFF00
:020000040030CA
:0E00000000655F3CFFD385FF0FC00FE00F408F
:00000001FF
